{
  "contractName": "TokenStaking50",
  "abi": [
    {
      "inputs": [
        {
          "internalType": "contract TestToken",
          "name": "_testToken",
          "type": "address"
        }
      ],
      "payable": true,
      "stateMutability": "payable",
      "type": "constructor"
    },
    {
      "constant": true,
      "inputs": [
        {
          "internalType": "address",
          "name": "",
          "type": "address"
        }
      ],
      "name": "hasStaked",
      "outputs": [
        {
          "internalType": "bool",
          "name": "",
          "type": "bool"
        }
      ],
      "payable": false,
      "stateMutability": "view",
      "type": "function"
    },
    {
      "constant": true,
      "inputs": [
        {
          "internalType": "address",
          "name": "",
          "type": "address"
        }
      ],
      "name": "isStakingAtm",
      "outputs": [
        {
          "internalType": "bool",
          "name": "",
          "type": "bool"
        }
      ],
      "payable": false,
      "stateMutability": "view",
      "type": "function"
    },
    {
      "constant": true,
      "inputs": [],
      "name": "name",
      "outputs": [
        {
          "internalType": "string",
          "name": "",
          "type": "string"
        }
      ],
      "payable": false,
      "stateMutability": "view",
      "type": "function"
    },
    {
      "constant": true,
      "inputs": [],
      "name": "owner",
      "outputs": [
        {
          "internalType": "address",
          "name": "",
          "type": "address"
        }
      ],
      "payable": false,
      "stateMutability": "view",
      "type": "function"
    },
    {
      "constant": true,
      "inputs": [
        {
          "internalType": "uint256",
          "name": "",
          "type": "uint256"
        }
      ],
      "name": "stakers",
      "outputs": [
        {
          "internalType": "address",
          "name": "",
          "type": "address"
        }
      ],
      "payable": false,
      "stateMutability": "view",
      "type": "function"
    },
    {
      "constant": true,
      "inputs": [
        {
          "internalType": "address",
          "name": "",
          "type": "address"
        }
      ],
      "name": "stakingBalance",
      "outputs": [
        {
          "internalType": "uint256",
          "name": "",
          "type": "uint256"
        }
      ],
      "payable": false,
      "stateMutability": "view",
      "type": "function"
    },
    {
      "constant": true,
      "inputs": [],
      "name": "testToken",
      "outputs": [
        {
          "internalType": "contract TestToken",
          "name": "",
          "type": "address"
        }
      ],
      "payable": false,
      "stateMutability": "view",
      "type": "function"
    },
    {
      "constant": true,
      "inputs": [],
      "name": "totalStaked",
      "outputs": [
        {
          "internalType": "uint256",
          "name": "",
          "type": "uint256"
        }
      ],
      "payable": false,
      "stateMutability": "view",
      "type": "function"
    },
    {
      "constant": false,
      "inputs": [
        {
          "internalType": "uint256",
          "name": "_amount",
          "type": "uint256"
        }
      ],
      "name": "stakeTokens",
      "outputs": [],
      "payable": false,
      "stateMutability": "nonpayable",
      "type": "function"
    },
    {
      "constant": false,
      "inputs": [],
      "name": "unstakeTokens",
      "outputs": [],
      "payable": false,
      "stateMutability": "nonpayable",
      "type": "function"
    },
    {
      "constant": false,
      "inputs": [],
      "name": "redistributeRewards",
      "outputs": [],
      "payable": false,
      "stateMutability": "nonpayable",
      "type": "function"
    },
    {
      "constant": false,
      "inputs": [],
      "name": "claimTst",
      "outputs": [],
      "payable": false,
      "stateMutability": "nonpayable",
      "type": "function"
    }
  ],
  "bytecode": "0x60806040526040518060400160405280601f81526020017f5969656c64204661726d696e67202f20546f6b656e2064417070202d203530008152506000908051906020019061004f92919061010b565b506040516110863803806110868339818101604052602081101561007257600080fd5b810190808051906020019092919050505080600160006101000a81548173ffffffffffffffffffffffffffffffffffffffff021916908373ffffffffffffffffffffffffffffffffffffffff16021790555033600260006101000a81548173ffffffffffffffffffffffffffffffffffffffff021916908373ffffffffffffffffffffffffffffffffffffffff160217905550506101b0565b828054600181600116156101000203166002900490600052602060002090601f016020900481019282601f1061014c57805160ff191683800117855561017a565b8280016001018555821561017a579182015b8281111561017957825182559160200191906001019061015e565b5b509050610187919061018b565b5090565b6101ad91905b808211156101a9576000816000905550600101610191565b5090565b90565b610ec7806101bf6000396000f3fe608060405234801561001057600080fd5b50600436106100b45760003560e01c80638da5cb5b116100715780638da5cb5b146102345780639bd629321461027e578063a5ce413b146102da578063c93c8f34146102e4578063cc8da8b814610340578063fd5e6dd11461034a576100b4565b806306fdde03146100b957806329cc24071461013c57806345bc78ab146101465780636895179d1461019e5780637547c7a3146101e8578063817b1cd214610216575b600080fd5b6100c16103b8565b6040518080602001828103825283818151815260200191508051906020019080838360005b838110156101015780820151818401526020810190506100e6565b50505050905090810190601f16801561012e5780820380516001836020036101000a031916815260200191505b509250505060405180910390f35b610144610456565b005b6101886004803603602081101561015c57600080fd5b81019080803573ffffffffffffffffffffffffffffffffffffffff169060200190929190505050610558565b6040518082815260200191505060405180910390f35b6101a6610570565b604051808273ffffffffffffffffffffffffffffffffffffffff1673ffffffffffffffffffffffffffffffffffffffff16815260200191505060405180910390f35b610214600480360360208110156101fe57600080fd5b8101908080359060200190929190505050610596565b005b61021e610920565b6040518082815260200191505060405180910390f35b61023c610926565b604051808273ffffffffffffffffffffffffffffffffffffffff1673ffffffffffffffffffffffffffffffffffffffff16815260200191505060405180910390f35b6102c06004803603602081101561029457600080fd5b81019080803573ffffffffffffffffffffffffffffffffffffffff16906020019092919050505061094c565b604051808215151515815260200191505060405180910390f35b6102e261096c565b005b610326600480360360208110156102fa57600080fd5b81019080803573ffffffffffffffffffffffffffffffffffffffff169060200190929190505050610bb6565b604051808215151515815260200191505060405180910390f35b610348610bd6565b005b6103766004803603602081101561036057600080fd5b8101908080359060200190929190505050610e30565b604051808273ffffffffffffffffffffffffffffffffffffffff1673ffffffffffffffffffffffffffffffffffffffff16815260200191505060405180910390f35b60008054600181600116156101000203166002900480601f01602080910402602001604051908101604052809291908181526020018280546001816001161561010002031660029004801561044e5780601f106104235761010080835404028352916020019161044e565b820191906000526020600020905b81548152906001019060200180831161043157829003601f168201915b505050505081565b60003390506000683635c9adc5dea0000090506000819050600160009054906101000a900473ffffffffffffffffffffffffffffffffffffffff1673ffffffffffffffffffffffffffffffffffffffff1663a9059cbb84836040518363ffffffff1660e01b8152600401808373ffffffffffffffffffffffffffffffffffffffff1673ffffffffffffffffffffffffffffffffffffffff16815260200182815260200192505050602060405180830381600087803b15801561051757600080fd5b505af115801561052b573d6000803e3d6000fd5b505050506040513d602081101561054157600080fd5b810190808051906020019092919050505050505050565b60046020528060005260406000206000915090505481565b600160009054906101000a900473ffffffffffffffffffffffffffffffffffffffff1681565b6000811161060c576040517f08c379a00000000000000000000000000000000000000000000000000000000081526004018080602001828103825260128152602001807f616d6f756e742063616e6e6f742062652030000000000000000000000000000081525060200191505060405180910390fd5b600160009054906101000a900473ffffffffffffffffffffffffffffffffffffffff1673ffffffffffffffffffffffffffffffffffffffff166323b872dd3330846040518463ffffffff1660e01b8152600401808473ffffffffffffffffffffffffffffffffffffffff1673ffffffffffffffffffffffffffffffffffffffff1681526020018373ffffffffffffffffffffffffffffffffffffffff1673ffffffffffffffffffffffffffffffffffffffff1681526020018281526020019350505050602060405180830381600087803b1580156106e957600080fd5b505af11580156106fd573d6000803e3d6000fd5b505050506040513d602081101561071357600080fd5b810190808051906020019092919050505050806003540160038190555080600460003373ffffffffffffffffffffffffffffffffffffffff1673ffffffffffffffffffffffffffffffffffffffff1681526020019081526020016000205401600460003373ffffffffffffffffffffffffffffffffffffffff1673ffffffffffffffffffffffffffffffffffffffff16815260200190815260200160002081905550600560003373ffffffffffffffffffffffffffffffffffffffff1673ffffffffffffffffffffffffffffffffffffffff16815260200190815260200160002060009054906101000a900460ff1661086d5760073390806001815401808255809150509060018203906000526020600020016000909192909190916101000a81548173ffffffffffffffffffffffffffffffffffffffff021916908373ffffffffffffffffffffffffffffffffffffffff160217905550505b6001600560003373ffffffffffffffffffffffffffffffffffffffff1673ffffffffffffffffffffffffffffffffffffffff16815260200190815260200160002060006101000a81548160ff0219169083151502179055506001600660003373ffffffffffffffffffffffffffffffffffffffff1673ffffffffffffffffffffffffffffffffffffffff16815260200190815260200160002060006101000a81548160ff02191690831515021790555050565b60035481565b600260009054906101000a900473ffffffffffffffffffffffffffffffffffffffff1681565b60066020528060005260406000206000915054906101000a900460ff1681565b6000600460003373ffffffffffffffffffffffffffffffffffffffff1673ffffffffffffffffffffffffffffffffffffffff16815260200190815260200160002054905060008111610a26576040517f08c379a00000000000000000000000000000000000000000000000000000000081526004018080602001828103825260198152602001807f616d6f756e742068617320746f206d6f7265207468616e20300000000000000081525060200191505060405180910390fd5b600160009054906101000a900473ffffffffffffffffffffffffffffffffffffffff1673ffffffffffffffffffffffffffffffffffffffff1663a9059cbb33836040518363ffffffff1660e01b8152600401808373ffffffffffffffffffffffffffffffffffffffff1673ffffffffffffffffffffffffffffffffffffffff16815260200182815260200192505050602060405180830381600087803b158015610acf57600080fd5b505af1158015610ae3573d6000803e3d6000fd5b505050506040513d6020811015610af957600080fd5b81019080805190602001909291905050505080600354036003819055506000600460003373ffffffffffffffffffffffffffffffffffffffff1673ffffffffffffffffffffffffffffffffffffffff168152602001908152602001600020819055506000600660003373ffffffffffffffffffffffffffffffffffffffff1673ffffffffffffffffffffffffffffffffffffffff16815260200190815260200160002060006101000a81548160ff02191690831515021790555050565b60056020528060005260406000206000915054906101000a900460ff1681565b600260009054906101000a900473ffffffffffffffffffffffffffffffffffffffff1673ffffffffffffffffffffffffffffffffffffffff163373ffffffffffffffffffffffffffffffffffffffff1614610c7c576040517f08c379a0000000000000000000000000000000000000000000000000000000008152600401808060200182810382526026815260200180610e6d6026913960400191505060405180910390fd5b60008090505b600780549050811015610e2d57600060078281548110610c9e57fe5b9060005260206000200160009054906101000a900473ffffffffffffffffffffffffffffffffffffffff1690506000606490506000816701e6b8c62e3a800081610ce457fe5b049050600081600460008673ffffffffffffffffffffffffffffffffffffffff1673ffffffffffffffffffffffffffffffffffffffff168152602001908152602001600020540290506000811115610e1c57600160009054906101000a900473ffffffffffffffffffffffffffffffffffffffff1673ffffffffffffffffffffffffffffffffffffffff1663a9059cbb85836040518363ffffffff1660e01b8152600401808373ffffffffffffffffffffffffffffffffffffffff1673ffffffffffffffffffffffffffffffffffffffff16815260200182815260200192505050602060405180830381600087803b158015610ddf57600080fd5b505af1158015610df3573d6000803e3d6000fd5b505050506040513d6020811015610e0957600080fd5b8101908080519060200190929190505050505b505050508080600101915050610c82565b50565b60078181548110610e3d57fe5b906000526020600020016000915054906101000a900473ffffffffffffffffffffffffffffffffffffffff168156fe4f6e6c7920636f6e74726163742063726561746f722063616e20726564697374726962757465a265627a7a72315820992bc8a415ee0fef8a1c2b96f8d41364e9c237a55dc6fa7c3da7419ba545550764736f6c63430005100032",
  "source": "pragma solidity ^0.5.0;\r\n\r\nimport \"./TestToken.sol\";\r\n\r\ncontract TokenStaking50 {\r\n    string public name = \"Yield Farming / Token dApp - 50\";\r\n    TestToken public testToken;\r\n\r\n    //declaring owner state variable\r\n    address public owner;\r\n    //declaring total staked\r\n    uint256 public totalStaked;\r\n\r\n    mapping(address => uint256) public stakingBalance;\r\n    //mapping list of users who ever staked\r\n    mapping(address => bool) public hasStaked;\r\n    //mapping list of users who are staking at the moment\r\n    mapping(address => bool) public isStakingAtm;\r\n\r\n    //array of all stakers\r\n    address[] public stakers;\r\n\r\n    constructor(TestToken _testToken) public payable {\r\n        testToken = _testToken;\r\n\r\n        //assigning owner on deployment\r\n        owner = msg.sender;\r\n    }\r\n\r\n    //stake tokens\r\n\r\n    function stakeTokens(uint256 _amount) public {\r\n        //must be more than 0\r\n        require(_amount > 0, \"amount cannot be 0\");\r\n\r\n        //User adding test tokens\r\n        testToken.transferFrom(msg.sender, address(this), _amount);\r\n        totalStaked = totalStaked + _amount;\r\n\r\n        //updating staking balance for user by mapping\r\n        stakingBalance[msg.sender] = stakingBalance[msg.sender] + _amount;\r\n\r\n        //checking if user staked before or not, if NOT staked adding to array of stakers\r\n        if (!hasStaked[msg.sender]) {\r\n            stakers.push(msg.sender);\r\n        }\r\n\r\n        //updating staking status\r\n        hasStaked[msg.sender] = true;\r\n        isStakingAtm[msg.sender] = true;\r\n    }\r\n\r\n    function unstakeTokens() public {\r\n        //get staking balance for user\r\n\r\n        uint256 balance = stakingBalance[msg.sender];\r\n\r\n        //amount should be more than 0\r\n        require(balance > 0, \"amount has to more than 0\");\r\n\r\n        //transfer staked tokens back to user\r\n        testToken.transfer(msg.sender, balance);\r\n        totalStaked = totalStaked - balance;\r\n\r\n        //reseting users staking balance\r\n        stakingBalance[msg.sender] = 0;\r\n\r\n        //updating staking status\r\n        isStakingAtm[msg.sender] = false;\r\n    }\r\n\r\n    //airdropp tokens\r\n    function redistributeRewards() public {\r\n        //only owner can issue airdrop\r\n        require(msg.sender == owner, \"Only contract creator can redistribute\");\r\n\r\n        //doing drop for all addresses\r\n        for (uint256 i = 0; i < stakers.length; i++) {\r\n            address recipient = stakers[i];\r\n           uint256 percentage = 100;\r\n            uint256 apy = 137000000000000000 / percentage;\r\n            // uint256 apy = 100000000000000000 / percentage;\r\n            uint256 balance = stakingBalance[recipient] * apy;\r\n            if (balance > 0) {\r\n                testToken.transfer(recipient, balance);\r\n            }\r\n        }\r\n    }\r\n\r\n    //cliam test 1000 Tst (for testing purpose only !!)\r\n    function claimTst() public {\r\n        address recipient = msg.sender;\r\n        uint256 tst = 1000000000000000000000;\r\n        uint256 balance = tst;\r\n        testToken.transfer(recipient, balance);\r\n    }\r\n}\r\n",
  "sourcePath": "/mnt/e/APP DEVELOPEMENT/APP DEV NEW/BLOCKCHAIN/Token Staking dApp/src/contracts/TokenStaking50.sol",
  "compiler": {
    "name": "solc",
    "version": "0.5.16+commit.9c3226ce.Emscripten.clang"
  },
  "schemaVersion": "3.4.1",
  "updatedAt": "2021-05-26T13:10:31.011Z",
  "devdoc": {
    "methods": {}
  },
  "userdoc": {
    "methods": {}
  }
}