{
  "contractName": "TokenStaking",
  "abi": [
    {
      "inputs": [
        {
          "internalType": "contract TestToken",
          "name": "_testToken",
          "type": "address"
        }
      ],
      "payable": true,
      "stateMutability": "payable",
      "type": "constructor"
    },
    {
      "constant": true,
      "inputs": [],
      "name": "customAPY",
      "outputs": [
        {
          "internalType": "uint256",
          "name": "",
          "type": "uint256"
        }
      ],
      "payable": false,
      "stateMutability": "view",
      "type": "function"
    },
    {
      "constant": true,
      "inputs": [
        {
          "internalType": "address",
          "name": "",
          "type": "address"
        }
      ],
      "name": "customHasStaked",
      "outputs": [
        {
          "internalType": "bool",
          "name": "",
          "type": "bool"
        }
      ],
      "payable": false,
      "stateMutability": "view",
      "type": "function"
    },
    {
      "constant": true,
      "inputs": [
        {
          "internalType": "address",
          "name": "",
          "type": "address"
        }
      ],
      "name": "customIsStakingAtm",
      "outputs": [
        {
          "internalType": "bool",
          "name": "",
          "type": "bool"
        }
      ],
      "payable": false,
      "stateMutability": "view",
      "type": "function"
    },
    {
      "constant": true,
      "inputs": [
        {
          "internalType": "uint256",
          "name": "",
          "type": "uint256"
        }
      ],
      "name": "customStakers",
      "outputs": [
        {
          "internalType": "address",
          "name": "",
          "type": "address"
        }
      ],
      "payable": false,
      "stateMutability": "view",
      "type": "function"
    },
    {
      "constant": true,
      "inputs": [
        {
          "internalType": "address",
          "name": "",
          "type": "address"
        }
      ],
      "name": "customStakingBalance",
      "outputs": [
        {
          "internalType": "uint256",
          "name": "",
          "type": "uint256"
        }
      ],
      "payable": false,
      "stateMutability": "view",
      "type": "function"
    },
    {
      "constant": true,
      "inputs": [],
      "name": "customTotalStaked",
      "outputs": [
        {
          "internalType": "uint256",
          "name": "",
          "type": "uint256"
        }
      ],
      "payable": false,
      "stateMutability": "view",
      "type": "function"
    },
    {
      "constant": true,
      "inputs": [],
      "name": "defaultAPY",
      "outputs": [
        {
          "internalType": "uint256",
          "name": "",
          "type": "uint256"
        }
      ],
      "payable": false,
      "stateMutability": "view",
      "type": "function"
    },
    {
      "constant": true,
      "inputs": [
        {
          "internalType": "address",
          "name": "",
          "type": "address"
        }
      ],
      "name": "hasStaked",
      "outputs": [
        {
          "internalType": "bool",
          "name": "",
          "type": "bool"
        }
      ],
      "payable": false,
      "stateMutability": "view",
      "type": "function"
    },
    {
      "constant": true,
      "inputs": [
        {
          "internalType": "address",
          "name": "",
          "type": "address"
        }
      ],
      "name": "isStakingAtm",
      "outputs": [
        {
          "internalType": "bool",
          "name": "",
          "type": "bool"
        }
      ],
      "payable": false,
      "stateMutability": "view",
      "type": "function"
    },
    {
      "constant": true,
      "inputs": [],
      "name": "name",
      "outputs": [
        {
          "internalType": "string",
          "name": "",
          "type": "string"
        }
      ],
      "payable": false,
      "stateMutability": "view",
      "type": "function"
    },
    {
      "constant": true,
      "inputs": [],
      "name": "owner",
      "outputs": [
        {
          "internalType": "address",
          "name": "",
          "type": "address"
        }
      ],
      "payable": false,
      "stateMutability": "view",
      "type": "function"
    },
    {
      "constant": true,
      "inputs": [
        {
          "internalType": "uint256",
          "name": "",
          "type": "uint256"
        }
      ],
      "name": "stakers",
      "outputs": [
        {
          "internalType": "address",
          "name": "",
          "type": "address"
        }
      ],
      "payable": false,
      "stateMutability": "view",
      "type": "function"
    },
    {
      "constant": true,
      "inputs": [
        {
          "internalType": "address",
          "name": "",
          "type": "address"
        }
      ],
      "name": "stakingBalance",
      "outputs": [
        {
          "internalType": "uint256",
          "name": "",
          "type": "uint256"
        }
      ],
      "payable": false,
      "stateMutability": "view",
      "type": "function"
    },
    {
      "constant": true,
      "inputs": [],
      "name": "testToken",
      "outputs": [
        {
          "internalType": "contract TestToken",
          "name": "",
          "type": "address"
        }
      ],
      "payable": false,
      "stateMutability": "view",
      "type": "function"
    },
    {
      "constant": true,
      "inputs": [],
      "name": "totalStaked",
      "outputs": [
        {
          "internalType": "uint256",
          "name": "",
          "type": "uint256"
        }
      ],
      "payable": false,
      "stateMutability": "view",
      "type": "function"
    },
    {
      "constant": false,
      "inputs": [
        {
          "internalType": "uint256",
          "name": "_amount",
          "type": "uint256"
        }
      ],
      "name": "stakeTokens",
      "outputs": [],
      "payable": false,
      "stateMutability": "nonpayable",
      "type": "function"
    },
    {
      "constant": false,
      "inputs": [],
      "name": "unstakeTokens",
      "outputs": [],
      "payable": false,
      "stateMutability": "nonpayable",
      "type": "function"
    },
    {
      "constant": false,
      "inputs": [
        {
          "internalType": "uint256",
          "name": "_amount",
          "type": "uint256"
        }
      ],
      "name": "customStaking",
      "outputs": [],
      "payable": false,
      "stateMutability": "nonpayable",
      "type": "function"
    },
    {
      "constant": false,
      "inputs": [],
      "name": "customUnstake",
      "outputs": [],
      "payable": false,
      "stateMutability": "nonpayable",
      "type": "function"
    },
    {
      "constant": false,
      "inputs": [],
      "name": "redistributeRewards",
      "outputs": [],
      "payable": false,
      "stateMutability": "nonpayable",
      "type": "function"
    },
    {
      "constant": false,
      "inputs": [
        {
          "internalType": "uint256",
          "name": "_value",
          "type": "uint256"
        }
      ],
      "name": "changeAPY",
      "outputs": [],
      "payable": false,
      "stateMutability": "nonpayable",
      "type": "function"
    },
    {
      "constant": false,
      "inputs": [],
      "name": "claimTst",
      "outputs": [],
      "payable": false,
      "stateMutability": "nonpayable",
      "type": "function"
    }
  ],
  "bytecode": "0x60806040526040518060400160405280601a81526020017f5969656c64204661726d696e67202f20546f6b656e206441707000000000000081525060009080519060200190620000519291906200011b565b506064600355608960045560405162001b0638038062001b06833981810160405260208110156200008157600080fd5b810190808051906020019092919050505080600160006101000a81548173ffffffffffffffffffffffffffffffffffffffff021916908373ffffffffffffffffffffffffffffffffffffffff16021790555033600260006101000a81548173ffffffffffffffffffffffffffffffffffffffff021916908373ffffffffffffffffffffffffffffffffffffffff16021790555050620001ca565b828054600181600116156101000203166002900490600052602060002090601f016020900481019282601f106200015e57805160ff19168380011785556200018f565b828001600101855582156200018f579182015b828111156200018e57825182559160200191906001019062000171565b5b5090506200019e9190620001a2565b5090565b620001c791905b80821115620001c3576000816000905550600101620001a9565b5090565b90565b61192c80620001da6000396000f3fe608060405234801561001057600080fd5b50600436106101425760003560e01c8063817b1cd2116100b8578063c93c8f341161007c578063c93c8f34146104bc578063cc8da8b814610518578063cde5f47314610522578063dfb0e70614610590578063fb5cd515146105e8578063fd5e6dd11461061657610142565b8063817b1cd2146103d05780638da5cb5b146103ee5780639bd6293214610438578063a5ce413b14610494578063b4e892af1461049e57610142565b806363fa14661161010a57806363fa1466146102a65780636895179d146102c45780636d6010c11461030e5780637547c7a31461036a57806376159b68146103985780637cc302e5146103c657610142565b806306fdde03146101475780630c500a4e146101ca57806329cc2407146101e857806345bc78ab146101f25780635b5c58c31461024a575b600080fd5b61014f610684565b6040518080602001828103825283818151815260200191508051906020019080838360005b8381101561018f578082015181840152602081019050610174565b50505050905090810190601f1680156101bc5780820380516001836020036101000a031916815260200191505b509250505060405180910390f35b6101d2610722565b6040518082815260200191505060405180910390f35b6101f0610728565b005b6102346004803603602081101561020857600080fd5b81019080803573ffffffffffffffffffffffffffffffffffffffff16906020019092919050505061082a565b6040518082815260200191505060405180910390f35b61028c6004803603602081101561026057600080fd5b81019080803573ffffffffffffffffffffffffffffffffffffffff169060200190929190505050610842565b604051808215151515815260200191505060405180910390f35b6102ae610862565b6040518082815260200191505060405180910390f35b6102cc610868565b604051808273ffffffffffffffffffffffffffffffffffffffff1673ffffffffffffffffffffffffffffffffffffffff16815260200191505060405180910390f35b6103506004803603602081101561032457600080fd5b81019080803573ffffffffffffffffffffffffffffffffffffffff16906020019092919050505061088e565b604051808215151515815260200191505060405180910390f35b6103966004803603602081101561038057600080fd5b81019080803590602001909291905050506108ae565b005b6103c4600480360360208110156103ae57600080fd5b8101908080359060200190929190505050610c38565b005b6103ce610d5e565b005b6103d8610fa8565b6040518082815260200191505060405180910390f35b6103f6610fae565b604051808273ffffffffffffffffffffffffffffffffffffffff1673ffffffffffffffffffffffffffffffffffffffff16815260200191505060405180910390f35b61047a6004803603602081101561044e57600080fd5b81019080803573ffffffffffffffffffffffffffffffffffffffff169060200190929190505050610fd4565b604051808215151515815260200191505060405180910390f35b61049c610ff4565b005b6104a661123e565b6040518082815260200191505060405180910390f35b6104fe600480360360208110156104d257600080fd5b81019080803573ffffffffffffffffffffffffffffffffffffffff169060200190929190505050611244565b604051808215151515815260200191505060405180910390f35b610520611264565b005b61054e6004803603602081101561053857600080fd5b81019080803590602001909291905050506114b7565b604051808273ffffffffffffffffffffffffffffffffffffffff1673ffffffffffffffffffffffffffffffffffffffff16815260200191505060405180910390f35b6105d2600480360360208110156105a657600080fd5b81019080803573ffffffffffffffffffffffffffffffffffffffff1690602001909291905050506114f3565b6040518082815260200191505060405180910390f35b610614600480360360208110156105fe57600080fd5b810190808035906020019092919050505061150b565b005b6106426004803603602081101561062c57600080fd5b8101908080359060200190929190505050611895565b604051808273ffffffffffffffffffffffffffffffffffffffff1673ffffffffffffffffffffffffffffffffffffffff16815260200191505060405180910390f35b60008054600181600116156101000203166002900480601f01602080910402602001604051908101604052809291908181526020018280546001816001161561010002031660029004801561071a5780601f106106ef5761010080835404028352916020019161071a565b820191906000526020600020905b8154815290600101906020018083116106fd57829003601f168201915b505050505081565b60045481565b60003390506000683635c9adc5dea0000090506000819050600160009054906101000a900473ffffffffffffffffffffffffffffffffffffffff1673ffffffffffffffffffffffffffffffffffffffff1663a9059cbb84836040518363ffffffff1660e01b8152600401808373ffffffffffffffffffffffffffffffffffffffff1673ffffffffffffffffffffffffffffffffffffffff16815260200182815260200192505050602060405180830381600087803b1580156107e957600080fd5b505af11580156107fd573d6000803e3d6000fd5b505050506040513d602081101561081357600080fd5b810190808051906020019092919050505050505050565b60076020528060005260406000206000915090505481565b600c6020528060005260406000206000915054906101000a900460ff1681565b60065481565b600160009054906101000a900473ffffffffffffffffffffffffffffffffffffffff1681565b600a6020528060005260406000206000915054906101000a900460ff1681565b60008111610924576040517f08c379a00000000000000000000000000000000000000000000000000000000081526004018080602001828103825260128152602001807f616d6f756e742063616e6e6f742062652030000000000000000000000000000081525060200191505060405180910390fd5b600160009054906101000a900473ffffffffffffffffffffffffffffffffffffffff1673ffffffffffffffffffffffffffffffffffffffff166323b872dd3330846040518463ffffffff1660e01b8152600401808473ffffffffffffffffffffffffffffffffffffffff1673ffffffffffffffffffffffffffffffffffffffff1681526020018373ffffffffffffffffffffffffffffffffffffffff1673ffffffffffffffffffffffffffffffffffffffff1681526020018281526020019350505050602060405180830381600087803b158015610a0157600080fd5b505af1158015610a15573d6000803e3d6000fd5b505050506040513d6020811015610a2b57600080fd5b810190808051906020019092919050505050806005540160058190555080600760003373ffffffffffffffffffffffffffffffffffffffff1673ffffffffffffffffffffffffffffffffffffffff1681526020019081526020016000205401600760003373ffffffffffffffffffffffffffffffffffffffff1673ffffffffffffffffffffffffffffffffffffffff16815260200190815260200160002081905550600960003373ffffffffffffffffffffffffffffffffffffffff1673ffffffffffffffffffffffffffffffffffffffff16815260200190815260200160002060009054906101000a900460ff16610b8557600d3390806001815401808255809150509060018203906000526020600020016000909192909190916101000a81548173ffffffffffffffffffffffffffffffffffffffff021916908373ffffffffffffffffffffffffffffffffffffffff160217905550505b6001600960003373ffffffffffffffffffffffffffffffffffffffff1673ffffffffffffffffffffffffffffffffffffffff16815260200190815260200160002060006101000a81548160ff0219169083151502179055506001600b60003373ffffffffffffffffffffffffffffffffffffffff1673ffffffffffffffffffffffffffffffffffffffff16815260200190815260200160002060006101000a81548160ff02191690831515021790555050565b600260009054906101000a900473ffffffffffffffffffffffffffffffffffffffff1673ffffffffffffffffffffffffffffffffffffffff163373ffffffffffffffffffffffffffffffffffffffff1614610cde576040517f08c379a00000000000000000000000000000000000000000000000000000000081526004018080602001828103825260268152602001806118d26026913960400191505060405180910390fd5b60008111610d54576040517f08c379a000000000000000000000000000000000000000000000000000000000815260040180806020018281038252601f8152602001807f4150592076616c75652068617320746f206265206d6f7265207468616e20300081525060200191505060405180910390fd5b8060038190555050565b6000600860003373ffffffffffffffffffffffffffffffffffffffff1673ffffffffffffffffffffffffffffffffffffffff16815260200190815260200160002054905060008111610e18576040517f08c379a000000000000000000000000000000000000000000000000000000000815260040180806020018281038252601c8152602001807f616d6f756e742068617320746f206265206d6f7265207468616e20300000000081525060200191505060405180910390fd5b600160009054906101000a900473ffffffffffffffffffffffffffffffffffffffff1673ffffffffffffffffffffffffffffffffffffffff1663a9059cbb33836040518363ffffffff1660e01b8152600401808373ffffffffffffffffffffffffffffffffffffffff1673ffffffffffffffffffffffffffffffffffffffff16815260200182815260200192505050602060405180830381600087803b158015610ec157600080fd5b505af1158015610ed5573d6000803e3d6000fd5b505050506040513d6020811015610eeb57600080fd5b81019080805190602001909291905050505080600654036006819055506000600860003373ffffffffffffffffffffffffffffffffffffffff1673ffffffffffffffffffffffffffffffffffffffff168152602001908152602001600020819055506000600c60003373ffffffffffffffffffffffffffffffffffffffff1673ffffffffffffffffffffffffffffffffffffffff16815260200190815260200160002060006101000a81548160ff02191690831515021790555050565b60055481565b600260009054906101000a900473ffffffffffffffffffffffffffffffffffffffff1681565b600b6020528060005260406000206000915054906101000a900460ff1681565b6000600760003373ffffffffffffffffffffffffffffffffffffffff1673ffffffffffffffffffffffffffffffffffffffff168152602001908152602001600020549050600081116110ae576040517f08c379a000000000000000000000000000000000000000000000000000000000815260040180806020018281038252601c8152602001807f616d6f756e742068617320746f206265206d6f7265207468616e20300000000081525060200191505060405180910390fd5b600160009054906101000a900473ffffffffffffffffffffffffffffffffffffffff1673ffffffffffffffffffffffffffffffffffffffff1663a9059cbb33836040518363ffffffff1660e01b8152600401808373ffffffffffffffffffffffffffffffffffffffff1673ffffffffffffffffffffffffffffffffffffffff16815260200182815260200192505050602060405180830381600087803b15801561115757600080fd5b505af115801561116b573d6000803e3d6000fd5b505050506040513d602081101561118157600080fd5b81019080805190602001909291905050505080600554036005819055506000600760003373ffffffffffffffffffffffffffffffffffffffff1673ffffffffffffffffffffffffffffffffffffffff168152602001908152602001600020819055506000600b60003373ffffffffffffffffffffffffffffffffffffffff1673ffffffffffffffffffffffffffffffffffffffff16815260200190815260200160002060006101000a81548160ff02191690831515021790555050565b60035481565b60096020528060005260406000206000915054906101000a900460ff1681565b600260009054906101000a900473ffffffffffffffffffffffffffffffffffffffff1673ffffffffffffffffffffffffffffffffffffffff163373ffffffffffffffffffffffffffffffffffffffff161461130a576040517f08c379a00000000000000000000000000000000000000000000000000000000081526004018080602001828103825260268152602001806118d26026913960400191505060405180910390fd5b60008090505b600d805490508110156114b4576000600d828154811061132c57fe5b9060005260206000200160009054906101000a900473ffffffffffffffffffffffffffffffffffffffff1690506000620186a090506000600354600760008573ffffffffffffffffffffffffffffffffffffffff1673ffffffffffffffffffffffffffffffffffffffff168152602001908152602001600020540290508181816113b257fe5b04905060008111156114a457600160009054906101000a900473ffffffffffffffffffffffffffffffffffffffff1673ffffffffffffffffffffffffffffffffffffffff1663a9059cbb84836040518363ffffffff1660e01b8152600401808373ffffffffffffffffffffffffffffffffffffffff1673ffffffffffffffffffffffffffffffffffffffff16815260200182815260200192505050602060405180830381600087803b15801561146757600080fd5b505af115801561147b573d6000803e3d6000fd5b505050506040513d602081101561149157600080fd5b8101908080519060200190929190505050505b5050508080600101915050611310565b50565b600e81815481106114c457fe5b906000526020600020016000915054906101000a900473ffffffffffffffffffffffffffffffffffffffff1681565b60086020528060005260406000206000915090505481565b60008111611581576040517f08c379a00000000000000000000000000000000000000000000000000000000081526004018080602001828103825260128152602001807f616d6f756e742063616e6e6f742062652030000000000000000000000000000081525060200191505060405180910390fd5b600160009054906101000a900473ffffffffffffffffffffffffffffffffffffffff1673ffffffffffffffffffffffffffffffffffffffff166323b872dd3330846040518463ffffffff1660e01b8152600401808473ffffffffffffffffffffffffffffffffffffffff1673ffffffffffffffffffffffffffffffffffffffff1681526020018373ffffffffffffffffffffffffffffffffffffffff1673ffffffffffffffffffffffffffffffffffffffff1681526020018281526020019350505050602060405180830381600087803b15801561165e57600080fd5b505af1158015611672573d6000803e3d6000fd5b505050506040513d602081101561168857600080fd5b810190808051906020019092919050505050806006540160068190555080600860003373ffffffffffffffffffffffffffffffffffffffff1673ffffffffffffffffffffffffffffffffffffffff1681526020019081526020016000205401600860003373ffffffffffffffffffffffffffffffffffffffff1673ffffffffffffffffffffffffffffffffffffffff16815260200190815260200160002081905550600a60003373ffffffffffffffffffffffffffffffffffffffff1673ffffffffffffffffffffffffffffffffffffffff16815260200190815260200160002060009054906101000a900460ff166117e257600e3390806001815401808255809150509060018203906000526020600020016000909192909190916101000a81548173ffffffffffffffffffffffffffffffffffffffff021916908373ffffffffffffffffffffffffffffffffffffffff160217905550505b6001600a60003373ffffffffffffffffffffffffffffffffffffffff1673ffffffffffffffffffffffffffffffffffffffff16815260200190815260200160002060006101000a81548160ff0219169083151502179055506001600c60003373ffffffffffffffffffffffffffffffffffffffff1673ffffffffffffffffffffffffffffffffffffffff16815260200190815260200160002060006101000a81548160ff02191690831515021790555050565b600d81815481106118a257fe5b906000526020600020016000915054906101000a900473ffffffffffffffffffffffffffffffffffffffff168156fe4f6e6c7920636f6e74726163742063726561746f722063616e20726564697374726962757465a265627a7a72315820be67d7dc3a285733d25feea52c0629f6631c7bf9d02ba66cbf34dae2bd143d4464736f6c63430005100032",
  "source": "pragma solidity ^0.5.0;\r\n\r\nimport \"./TestToken.sol\";\r\n\r\ncontract TokenStaking {\r\n    string public name = \"Yield Farming / Token dApp\";\r\n    TestToken public testToken;\r\n\r\n    //declaring owner state variable\r\n    address public owner;\r\n    \r\n    //declaring default APY (default 0.1% daily or 36.5% APY yearly)\r\n    uint256 public defaultAPY = 100;\r\n    \r\n    //declaring APY for custom staking ( default 0.137% daily or 50% APY yearly)\r\n    uint256 public customAPY = 137;\r\n    \r\n    \r\n    //declaring total staked\r\n    uint256 public totalStaked;\r\n    uint256 public customTotalStaked;\r\n\r\n    //users staking balance\r\n    mapping(address => uint256) public stakingBalance;\r\n    mapping(address => uint256) public customStakingBalance;\r\n    \r\n    //mapping list of users who ever staked\r\n    mapping(address => bool) public hasStaked;\r\n    mapping(address => bool) public customHasStaked;\r\n    \r\n    //mapping list of users who are staking at the moment\r\n    mapping(address => bool) public isStakingAtm;\r\n    mapping(address => bool) public customIsStakingAtm;\r\n\r\n    //array of all stakers\r\n    address[] public stakers;\r\n    address[] public customStakers;\r\n\r\n    constructor(TestToken _testToken) public payable {\r\n        testToken = _testToken;\r\n\r\n        //assigning owner on deployment\r\n        owner = msg.sender;\r\n    }\r\n\r\n    //stake tokens function\r\n\r\n    function stakeTokens(uint256 _amount) public {\r\n        //must be more than 0\r\n        require(_amount > 0, \"amount cannot be 0\");\r\n\r\n        //User adding test tokens\r\n        testToken.transferFrom(msg.sender, address(this), _amount);\r\n        totalStaked = totalStaked + _amount;\r\n\r\n        //updating staking balance for user by mapping\r\n        stakingBalance[msg.sender] = stakingBalance[msg.sender] + _amount;\r\n\r\n        //checking if user staked before or not, if NOT staked adding to array of stakers\r\n        if (!hasStaked[msg.sender]) {\r\n            stakers.push(msg.sender);\r\n        }\r\n\r\n        //updating staking status\r\n        hasStaked[msg.sender] = true;\r\n        isStakingAtm[msg.sender] = true;\r\n    }\r\n    \r\n    //unstake tokens function\r\n    \r\n        function unstakeTokens() public {\r\n        //get staking balance for user\r\n\r\n        uint256 balance = stakingBalance[msg.sender];\r\n\r\n        //amount should be more than 0\r\n        require(balance > 0, \"amount has to be more than 0\");\r\n\r\n        //transfer staked tokens back to user\r\n        testToken.transfer(msg.sender, balance);\r\n        totalStaked = totalStaked - balance;\r\n\r\n        //reseting users staking balance\r\n        stakingBalance[msg.sender] = 0;\r\n\r\n        //updating staking status\r\n        isStakingAtm[msg.sender] = false;\r\n    }\r\n    \r\n    \r\n    // different APY Pool \r\n    function customStaking (uint256 _amount) public {\r\n        \r\n        require(_amount > 0, \"amount cannot be 0\");\r\n        testToken.transferFrom(msg.sender, address(this), _amount);\r\n        customTotalStaked = customTotalStaked + _amount;\r\n        customStakingBalance[msg.sender] = customStakingBalance[msg.sender] + _amount;\r\n        \r\n        if (!customHasStaked[msg.sender]) {\r\n            customStakers.push(msg.sender);\r\n        }\r\n        customHasStaked[msg.sender] = true;\r\n        customIsStakingAtm[msg.sender] = true;\r\n    }\r\n    \r\n    function customUnstake() public {\r\n\r\n        uint256 balance = customStakingBalance[msg.sender];\r\n        require(balance > 0, \"amount has to be more than 0\");\r\n        testToken.transfer(msg.sender, balance);\r\n        customTotalStaked = customTotalStaked - balance;\r\n        customStakingBalance[msg.sender] = 0;\r\n        customIsStakingAtm[msg.sender] = false;\r\n    }\r\n    \r\n    \r\n\r\n\r\n    //airdropp tokens\r\n    function redistributeRewards() public {\r\n        //only owner can issue airdrop\r\n        require(msg.sender == owner, \"Only contract creator can redistribute\");\r\n\r\n        //doing drop for all addresses\r\n        for (uint256 i = 0; i < stakers.length; i++) {\r\n            address recipient = stakers[i];\r\n            uint256 percentage = 100000;\r\n        //calculating daily apy for user\r\n            uint256 balance = stakingBalance[recipient] * defaultAPY;\r\n            balance = balance / percentage;\r\n\r\n            if (balance > 0) {\r\n                testToken.transfer(recipient, balance);\r\n            }\r\n        }\r\n        \r\n        \r\n    }\r\n    //change APY value for custom staking\r\n    function changeAPY(uint256 _value) public {\r\n               //only owner can issue airdrop\r\n        require(msg.sender == owner, \"Only contract creator can redistribute\"); \r\n        require(_value > 0, \"APY value has to be more than 0\");\r\n        defaultAPY = _value;\r\n    }\r\n\r\n    //cliam test 1000 Tst (for testing purpose only !!)\r\n    function claimTst() public {\r\n        address recipient = msg.sender;\r\n        uint256 tst = 1000000000000000000000;\r\n        uint256 balance = tst;\r\n        testToken.transfer(recipient, balance);\r\n    }\r\n}\r\n",
  "sourcePath": "/mnt/e/APP DEVELOPEMENT/APP DEV NEW/BLOCKCHAIN/Token Staking dApp/src/contracts/TokenStaking.sol",
  "compiler": {
    "name": "solc",
    "version": "0.5.16+commit.9c3226ce.Emscripten.clang"
  },
  "schemaVersion": "3.4.1",
  "updatedAt": "2021-05-27T14:50:20.104Z",
  "networkType": "ethereum",
  "devdoc": {
    "methods": {}
  },
  "userdoc": {
    "methods": {}
  }
}